{
  "contractName": "ImmutablePosts",
  "abi": [
    {
      "anonymous": false,
      "inputs": [
        {
          "indexed": true,
          "internalType": "address",
          "name": "previousOwner",
          "type": "address"
        },
        {
          "indexed": true,
          "internalType": "address",
          "name": "newOwner",
          "type": "address"
        }
      ],
      "name": "OwnershipTransferred",
      "type": "event"
    },
    {
      "anonymous": false,
      "inputs": [
        {
          "indexed": false,
          "internalType": "uint256",
          "name": "idauthor",
          "type": "uint256"
        },
        {
          "indexed": false,
          "internalType": "string",
          "name": "name",
          "type": "string"
        },
        {
          "indexed": false,
          "internalType": "string",
          "name": "bio",
          "type": "string"
        },
        {
          "indexed": false,
          "internalType": "string",
          "name": "link",
          "type": "string"
        },
        {
          "indexed": false,
          "internalType": "address",
          "name": "authoraddress",
          "type": "address"
        }
      ],
      "name": "newAuthor",
      "type": "event"
    },
    {
      "anonymous": false,
      "inputs": [
        {
          "indexed": false,
          "internalType": "uint256",
          "name": "id",
          "type": "uint256"
        },
        {
          "indexed": false,
          "internalType": "string",
          "name": "categoryname",
          "type": "string"
        }
      ],
      "name": "newCategory",
      "type": "event"
    },
    {
      "anonymous": false,
      "inputs": [
        {
          "indexed": false,
          "internalType": "uint256",
          "name": "id",
          "type": "uint256"
        },
        {
          "indexed": false,
          "internalType": "string",
          "name": "title",
          "type": "string"
        },
        {
          "indexed": false,
          "internalType": "string",
          "name": "description",
          "type": "string"
        },
        {
          "indexed": false,
          "internalType": "string",
          "name": "category",
          "type": "string"
        }
      ],
      "name": "newPost",
      "type": "event"
    },
    {
      "constant": true,
      "inputs": [
        {
          "internalType": "uint256",
          "name": "",
          "type": "uint256"
        }
      ],
      "name": "authorToOwner",
      "outputs": [
        {
          "internalType": "address",
          "name": "",
          "type": "address"
        }
      ],
      "payable": false,
      "stateMutability": "view",
      "type": "function"
    },
    {
      "constant": true,
      "inputs": [
        {
          "internalType": "uint256",
          "name": "",
          "type": "uint256"
        }
      ],
      "name": "authors",
      "outputs": [
        {
          "internalType": "string",
          "name": "name",
          "type": "string"
        },
        {
          "internalType": "string",
          "name": "bio",
          "type": "string"
        },
        {
          "internalType": "string",
          "name": "link",
          "type": "string"
        },
        {
          "internalType": "address",
          "name": "authoraddress",
          "type": "address"
        }
      ],
      "payable": false,
      "stateMutability": "view",
      "type": "function"
    },
    {
      "constant": true,
      "inputs": [
        {
          "internalType": "uint256",
          "name": "",
          "type": "uint256"
        }
      ],
      "name": "categories",
      "outputs": [
        {
          "internalType": "string",
          "name": "name",
          "type": "string"
        }
      ],
      "payable": false,
      "stateMutability": "view",
      "type": "function"
    },
    {
      "constant": true,
      "inputs": [],
      "name": "isOwner",
      "outputs": [
        {
          "internalType": "bool",
          "name": "",
          "type": "bool"
        }
      ],
      "payable": false,
      "stateMutability": "view",
      "type": "function"
    },
    {
      "constant": true,
      "inputs": [],
      "name": "owner",
      "outputs": [
        {
          "internalType": "address",
          "name": "",
          "type": "address"
        }
      ],
      "payable": false,
      "stateMutability": "view",
      "type": "function"
    },
    {
      "constant": true,
      "inputs": [
        {
          "internalType": "address",
          "name": "",
          "type": "address"
        }
      ],
      "name": "ownerAuthorCount",
      "outputs": [
        {
          "internalType": "uint256",
          "name": "",
          "type": "uint256"
        }
      ],
      "payable": false,
      "stateMutability": "view",
      "type": "function"
    },
    {
      "constant": true,
      "inputs": [
        {
          "internalType": "address",
          "name": "",
          "type": "address"
        }
      ],
      "name": "ownerToAuthor",
      "outputs": [
        {
          "internalType": "uint256",
          "name": "",
          "type": "uint256"
        }
      ],
      "payable": false,
      "stateMutability": "view",
      "type": "function"
    },
    {
      "constant": true,
      "inputs": [
        {
          "internalType": "uint256",
          "name": "",
          "type": "uint256"
        }
      ],
      "name": "postToOwner",
      "outputs": [
        {
          "internalType": "address",
          "name": "",
          "type": "address"
        }
      ],
      "payable": false,
      "stateMutability": "view",
      "type": "function"
    },
    {
      "constant": true,
      "inputs": [
        {
          "internalType": "uint256",
          "name": "",
          "type": "uint256"
        }
      ],
      "name": "posts",
      "outputs": [
        {
          "internalType": "string",
          "name": "title",
          "type": "string"
        },
        {
          "internalType": "string",
          "name": "description",
          "type": "string"
        },
        {
          "internalType": "string",
          "name": "category",
          "type": "string"
        },
        {
          "internalType": "address",
          "name": "authorpost",
          "type": "address"
        },
        {
          "internalType": "string",
          "name": "ipfshash",
          "type": "string"
        }
      ],
      "payable": false,
      "stateMutability": "view",
      "type": "function"
    },
    {
      "constant": false,
      "inputs": [],
      "name": "renounceOwnership",
      "outputs": [],
      "payable": false,
      "stateMutability": "nonpayable",
      "type": "function"
    },
    {
      "constant": false,
      "inputs": [
        {
          "internalType": "address",
          "name": "newOwner",
          "type": "address"
        }
      ],
      "name": "transferOwnership",
      "outputs": [],
      "payable": false,
      "stateMutability": "nonpayable",
      "type": "function"
    },
    {
      "constant": false,
      "inputs": [
        {
          "internalType": "string",
          "name": "_name",
          "type": "string"
        },
        {
          "internalType": "string",
          "name": "_bio",
          "type": "string"
        },
        {
          "internalType": "string",
          "name": "_link",
          "type": "string"
        }
      ],
      "name": "createAuthor",
      "outputs": [],
      "payable": false,
      "stateMutability": "nonpayable",
      "type": "function"
    },
    {
      "constant": true,
      "inputs": [
        {
          "internalType": "address",
          "name": "_owner",
          "type": "address"
        }
      ],
      "name": "getAuthorbyAccount",
      "outputs": [
        {
          "internalType": "uint256[]",
          "name": "",
          "type": "uint256[]"
        }
      ],
      "payable": false,
      "stateMutability": "view",
      "type": "function"
    },
    {
      "constant": true,
      "inputs": [
        {
          "internalType": "uint256",
          "name": "pos",
          "type": "uint256"
        }
      ],
      "name": "getAuthorbyId",
      "outputs": [
        {
          "internalType": "string",
          "name": "name",
          "type": "string"
        },
        {
          "internalType": "string",
          "name": "bio",
          "type": "string"
        },
        {
          "internalType": "string",
          "name": "link",
          "type": "string"
        },
        {
          "internalType": "address",
          "name": "authoraddress",
          "type": "address"
        }
      ],
      "payable": false,
      "stateMutability": "view",
      "type": "function"
    },
    {
      "constant": false,
      "inputs": [
        {
          "internalType": "string",
          "name": "_title",
          "type": "string"
        },
        {
          "internalType": "string",
          "name": "_description",
          "type": "string"
        },
        {
          "internalType": "string",
          "name": "_category",
          "type": "string"
        },
        {
          "internalType": "address payable",
          "name": "_pluginbeneficiary",
          "type": "address"
        },
        {
          "internalType": "string",
          "name": "_ipfshash",
          "type": "string"
        }
      ],
      "name": "createPostandPay",
      "outputs": [],
      "payable": true,
      "stateMutability": "payable",
      "type": "function"
    },
    {
      "constant": false,
      "inputs": [
        {
          "internalType": "uint256",
          "name": "_fullfee",
          "type": "uint256"
        },
        {
          "internalType": "address payable",
          "name": "_pluginbeneficiary",
          "type": "address"
        }
      ],
      "name": "payAndSplitFee",
      "outputs": [],
      "payable": true,
      "stateMutability": "payable",
      "type": "function"
    },
    {
      "constant": false,
      "inputs": [
        {
          "internalType": "string",
          "name": "_categoryname",
          "type": "string"
        }
      ],
      "name": "createCategory",
      "outputs": [],
      "payable": false,
      "stateMutability": "nonpayable",
      "type": "function"
    },
    {
      "constant": true,
      "inputs": [
        {
          "internalType": "address",
          "name": "_owner",
          "type": "address"
        }
      ],
      "name": "getPostbyAccount",
      "outputs": [
        {
          "internalType": "uint256[]",
          "name": "",
          "type": "uint256[]"
        }
      ],
      "payable": false,
      "stateMutability": "view",
      "type": "function"
    },
    {
      "constant": true,
      "inputs": [],
      "name": "getNbArticles",
      "outputs": [
        {
          "internalType": "uint256",
          "name": "_nbarticle",
          "type": "uint256"
        }
      ],
      "payable": false,
      "stateMutability": "view",
      "type": "function"
    },
    {
      "constant": true,
      "inputs": [
        {
          "internalType": "uint256",
          "name": "pos",
          "type": "uint256"
        }
      ],
      "name": "getPostbyId",
      "outputs": [
        {
          "internalType": "string",
          "name": "title",
          "type": "string"
        },
        {
          "internalType": "string",
          "name": "description",
          "type": "string"
        },
        {
          "internalType": "string",
          "name": "category",
          "type": "string"
        },
        {
          "internalType": "address",
          "name": "authorpost",
          "type": "address"
        },
        {
          "internalType": "string",
          "name": "ipfshash",
          "type": "string"
        }
      ],
      "payable": false,
      "stateMutability": "view",
      "type": "function"
    },
    {
      "constant": false,
      "inputs": [
        {
          "internalType": "uint256",
          "name": "_fee",
          "type": "uint256"
        }
      ],
      "name": "setFee",
      "outputs": [],
      "payable": false,
      "stateMutability": "nonpayable",
      "type": "function"
    },
    {
      "constant": true,
      "inputs": [],
      "name": "getFee",
      "outputs": [
        {
          "internalType": "uint256",
          "name": "",
          "type": "uint256"
        }
      ],
      "payable": false,
      "stateMutability": "view",
      "type": "function"
    },
    {
      "constant": false,
      "inputs": [
        {
          "internalType": "uint256",
          "name": "_percent",
          "type": "uint256"
        }
      ],
      "name": "setPercentage",
      "outputs": [],
      "payable": false,
      "stateMutability": "nonpayable",
      "type": "function"
    },
    {
      "constant": false,
      "inputs": [
        {
          "internalType": "address payable",
          "name": "_ourwallet",
          "type": "address"
        }
      ],
      "name": "setUpOurWallerAddress",
      "outputs": [],
      "payable": false,
      "stateMutability": "nonpayable",
      "type": "function"
    }
  ],
  "bytecode": "0x60806040526000600155736711be7371c275f62ee7f69e4cb7c09aced852cc600260006101000a81548173ffffffffffffffffffffffffffffffffffffffff021916908373ffffffffffffffffffffffffffffffffffffffff160217905550670135cbf0206a0000600d556005600e55600061007f61012260201b60201c565b9050806000806101000a81548173ffffffffffffffffffffffffffffffffffffffff021916908373ffffffffffffffffffffffffffffffffffffffff1602179055508073ffffffffffffffffffffffffffffffffffffffff16600073ffffffffffffffffffffffffffffffffffffffff167f8be0079c531659141344cd1fd0a4f28419497f9722a3daafe3b4186f6b6457e060405160405180910390a35061012a565b600033905090565b613240806101396000396000f3fe60806040526004361061014b5760003560e01c80637e0d2e1e116100b6578063c6cdbe5e1161006f578063c6cdbe5e146111ad578063cb02077d14611261578063cbe8ad21146112dc578063ced72f8714611357578063dc29868214611382578063f2fde38b1461144a5761014b565b80637e0d2e1e14610e0757806381eb8ac414610e6c5780638da5cb5b14610ed15780638f32d59b14610f28578063945979dc14610f575780639d677b0a14610f825761014b565b80635231444b116101085780635231444b146109775780635da4a1d314610b6d57806365641ec314610ba857806369fe0e2d14610bf6578063715018a614610c315780637b798ac214610c485761014b565b80630b1e7f8314610150578063109978761461037b5780632b071d97146104215780633b8e3b09146104725780633b950661146107125780633db804da146107b8575b600080fd5b34801561015c57600080fd5b506101896004803603602081101561017357600080fd5b810190808035906020019092919050505061149b565b604051808060200180602001806020018673ffffffffffffffffffffffffffffffffffffffff1673ffffffffffffffffffffffffffffffffffffffff1681526020018060200185810385528a818151815260200191508051906020019080838360005b838110156102075780820151818401526020810190506101ec565b50505050905090810190601f1680156102345780820380516001836020036101000a031916815260200191505b50858103845289818151815260200191508051906020019080838360005b8381101561026d578082015181840152602081019050610252565b50505050905090810190601f16801561029a5780820380516001836020036101000a031916815260200191505b50858103835288818151815260200191508051906020019080838360005b838110156102d35780820151818401526020810190506102b8565b50505050905090810190601f1680156103005780820380516001836020036101000a031916815260200191505b50858103825286818151815260200191508051906020019080838360005b8381101561033957808201518184015260208101905061031e565b50505050905090810190601f1680156103665780820380516001836020036101000a031916815260200191505b50995050505050505050505060405180910390f35b34801561038757600080fd5b506103ca6004803603602081101561039e57600080fd5b81019080803573ffffffffffffffffffffffffffffffffffffffff16906020019092919050505061175e565b6040518080602001828103825283818151815260200191508051906020019060200280838360005b8381101561040d5780820151818401526020810190506103f2565b505050509050019250505060405180910390f35b34801561042d57600080fd5b506104706004803603602081101561044457600080fd5b81019080803573ffffffffffffffffffffffffffffffffffffffff16906020019092919050505061188b565b005b610710600480360360a081101561048857600080fd5b81019080803590602001906401000000008111156104a557600080fd5b8201836020820111156104b757600080fd5b803590602001918460018302840111640100000000831117156104d957600080fd5b91908080601f016020809104026020016040519081016040528093929190818152602001838380828437600081840152601f19601f8201169050808301925050505050505091929192908035906020019064010000000081111561053c57600080fd5b82018360208201111561054e57600080fd5b8035906020019184600183028401116401000000008311171561057057600080fd5b91908080601f016020809104026020016040519081016040528093929190818152602001838380828437600081840152601f19601f820116905080830192505050505050509192919290803590602001906401000000008111156105d357600080fd5b8201836020820111156105e557600080fd5b8035906020019184600183028401116401000000008311171561060757600080fd5b91908080601f016020809104026020016040519081016040528093929190818152602001838380828437600081840152601f19601f820116905080830192505050505050509192919290803573ffffffffffffffffffffffffffffffffffffffff1690602001909291908035906020019064010000000081111561068a57600080fd5b82018360208201111561069c57600080fd5b803590602001918460018302840111640100000000831117156106be57600080fd5b91908080601f016020809104026020016040519081016040528093929190818152602001838380828437600081840152601f19601f820116905080830192505050505050509192919290505050611949565b005b34801561071e57600080fd5b506107616004803603602081101561073557600080fd5b81019080803573ffffffffffffffffffffffffffffffffffffffff169060200190929190505050611d0e565b6040518080602001828103825283818151815260200191508051906020019060200280838360005b838110156107a4578082015181840152602081019050610789565b505050509050019250505060405180910390f35b3480156107c457600080fd5b506107f1600480360360208110156107db57600080fd5b8101908080359060200190929190505050611e3b565b604051808060200180602001806020018573ffffffffffffffffffffffffffffffffffffffff1673ffffffffffffffffffffffffffffffffffffffff168152602001848103845288818151815260200191508051906020019080838360005b8381101561086b578082015181840152602081019050610850565b50505050905090810190601f1680156108985780820380516001836020036101000a031916815260200191505b50848103835287818151815260200191508051906020019080838360005b838110156108d15780820151818401526020810190506108b6565b50505050905090810190601f1680156108fe5780820380516001836020036101000a031916815260200191505b50848103825286818151815260200191508051906020019080838360005b8381101561093757808201518184015260208101905061091c565b50505050905090810190601f1680156109645780820380516001836020036101000a031916815260200191505b5097505050505050505060405180910390f35b34801561098357600080fd5b50610b6b6004803603606081101561099a57600080fd5b81019080803590602001906401000000008111156109b757600080fd5b8201836020820111156109c957600080fd5b803590602001918460018302840111640100000000831117156109eb57600080fd5b91908080601f016020809104026020016040519081016040528093929190818152602001838380828437600081840152601f19601f82011690508083019250505050505050919291929080359060200190640100000000811115610a4e57600080fd5b820183602082011115610a6057600080fd5b80359060200191846001830284011164010000000083111715610a8257600080fd5b91908080601f016020809104026020016040519081016040528093929190818152602001838380828437600081840152601f19601f82011690508083019250505050505050919291929080359060200190640100000000811115610ae557600080fd5b820183602082011115610af757600080fd5b80359060200191846001830284011164010000000083111715610b1957600080fd5b91908080601f016020809104026020016040519081016040528093929190818152602001838380828437600081840152601f19601f820116905080830192505050505050509192919290505050612060565b005b348015610b7957600080fd5b50610ba660048036036020811015610b9057600080fd5b810190808035906020019092919050505061240f565b005b610bf460048036036040811015610bbe57600080fd5b8101908080359060200190929190803573ffffffffffffffffffffffffffffffffffffffff169060200190929190505050612496565b005b348015610c0257600080fd5b50610c2f60048036036020811015610c1957600080fd5b8101908080359060200190929190505050612566565b005b348015610c3d57600080fd5b50610c466125f7565b005b348015610c5457600080fd5b50610c8160048036036020811015610c6b57600080fd5b8101908080359060200190929190505050612730565b604051808060200180602001806020018573ffffffffffffffffffffffffffffffffffffffff1673ffffffffffffffffffffffffffffffffffffffff168152602001848103845288818151815260200191508051906020019080838360005b83811015610cfb578082015181840152602081019050610ce0565b50505050905090810190601f168015610d285780820380516001836020036101000a031916815260200191505b50848103835287818151815260200191508051906020019080838360005b83811015610d61578082015181840152602081019050610d46565b50505050905090810190601f168015610d8e5780820380516001836020036101000a031916815260200191505b50848103825286818151815260200191508051906020019080838360005b83811015610dc7578082015181840152602081019050610dac565b50505050905090810190601f168015610df45780820380516001836020036101000a031916815260200191505b5097505050505050505060405180910390f35b348015610e1357600080fd5b50610e5660048036036020811015610e2a57600080fd5b81019080803573ffffffffffffffffffffffffffffffffffffffff16906020019092919050505061296a565b6040518082815260200191505060405180910390f35b348015610e7857600080fd5b50610ebb60048036036020811015610e8f57600080fd5b81019080803573ffffffffffffffffffffffffffffffffffffffff169060200190929190505050612982565b6040518082815260200191505060405180910390f35b348015610edd57600080fd5b50610ee661299a565b604051808273ffffffffffffffffffffffffffffffffffffffff1673ffffffffffffffffffffffffffffffffffffffff16815260200191505060405180910390f35b348015610f3457600080fd5b50610f3d6129c3565b604051808215151515815260200191505060405180910390f35b348015610f6357600080fd5b50610f6c612a21565b6040518082815260200191505060405180910390f35b348015610f8e57600080fd5b50610fbb60048036036020811015610fa557600080fd5b8101908080359060200190929190505050612a58565b604051808060200180602001806020018673ffffffffffffffffffffffffffffffffffffffff1673ffffffffffffffffffffffffffffffffffffffff1681526020018060200185810385528a818151815260200191508051906020019080838360005b8381101561103957808201518184015260208101905061101e565b50505050905090810190601f1680156110665780820380516001836020036101000a031916815260200191505b50858103845289818151815260200191508051906020019080838360005b8381101561109f578082015181840152602081019050611084565b50505050905090810190601f1680156110cc5780820380516001836020036101000a031916815260200191505b50858103835288818151815260200191508051906020019080838360005b838110156111055780820151818401526020810190506110ea565b50505050905090810190601f1680156111325780820380516001836020036101000a031916815260200191505b50858103825286818151815260200191508051906020019080838360005b8381101561116b578082015181840152602081019050611150565b50505050905090810190601f1680156111985780820380516001836020036101000a031916815260200191505b50995050505050505050505060405180910390f35b3480156111b957600080fd5b506111e6600480360360208110156111d057600080fd5b8101908080359060200190929190505050612d39565b6040518080602001828103825283818151815260200191508051906020019080838360005b8381101561122657808201518184015260208101905061120b565b50505050905090810190601f1680156112535780820380516001836020036101000a031916815260200191505b509250505060405180910390f35b34801561126d57600080fd5b5061129a6004803603602081101561128457600080fd5b8101908080359060200190929190505050612df8565b604051808273ffffffffffffffffffffffffffffffffffffffff1673ffffffffffffffffffffffffffffffffffffffff16815260200191505060405180910390f35b3480156112e857600080fd5b50611315600480360360208110156112ff57600080fd5b8101908080359060200190929190505050612e2b565b604051808273ffffffffffffffffffffffffffffffffffffffff1673ffffffffffffffffffffffffffffffffffffffff16815260200191505060405180910390f35b34801561136357600080fd5b5061136c612e5e565b6040518082815260200191505060405180910390f35b34801561138e57600080fd5b50611448600480360360208110156113a557600080fd5b81019080803590602001906401000000008111156113c257600080fd5b8201836020820111156113d457600080fd5b803590602001918460018302840111640100000000831117156113f657600080fd5b91908080601f016020809104026020016040519081016040528093929190818152602001838380828437600081840152601f19601f820116905080830192505050505050509192919290505050612e68565b005b34801561145657600080fd5b506114996004803603602081101561146d57600080fd5b81019080803573ffffffffffffffffffffffffffffffffffffffff169060200190929190505050612f6e565b005b600a81815481106114a857fe5b9060005260206000209060050201600091509050806000018054600181600116156101000203166002900480601f0160208091040260200160405190810160405280929190818152602001828054600181600116156101000203166002900480156115545780601f1061152957610100808354040283529160200191611554565b820191906000526020600020905b81548152906001019060200180831161153757829003601f168201915b505050505090806001018054600181600116156101000203166002900480601f0160208091040260200160405190810160405280929190818152602001828054600181600116156101000203166002900480156115f25780601f106115c7576101008083540402835291602001916115f2565b820191906000526020600020905b8154815290600101906020018083116115d557829003601f168201915b505050505090806002018054600181600116156101000203166002900480601f0160208091040260200160405190810160405280929190818152602001828054600181600116156101000203166002900480156116905780601f1061166557610100808354040283529160200191611690565b820191906000526020600020905b81548152906001019060200180831161167357829003601f168201915b5050505050908060030160009054906101000a900473ffffffffffffffffffffffffffffffffffffffff1690806004018054600181600116156101000203166002900480601f0160208091040260200160405190810160405280929190818152602001828054600181600116156101000203166002900480156117545780601f1061172957610100808354040283529160200191611754565b820191906000526020600020905b81548152906001019060200180831161173757829003601f168201915b5050505050905085565b606080600560008473ffffffffffffffffffffffffffffffffffffffff1673ffffffffffffffffffffffffffffffffffffffff168152602001908152602001600020546040519080825280602002602001820160405280156117cf5781602001602082028038833980820191505090505b509050600080905060008090505b600a80549050811015611880578473ffffffffffffffffffffffffffffffffffffffff166003600083815260200190815260200160002060009054906101000a900473ffffffffffffffffffffffffffffffffffffffff1673ffffffffffffffffffffffffffffffffffffffff161415611873578083838151811061185e57fe5b60200260200101818152505081806001019250505b80806001019150506117dd565b508192505050919050565b6118936129c3565b611905576040517f08c379a00000000000000000000000000000000000000000000000000000000081526004018080602001828103825260208152602001807f4f776e61626c653a2063616c6c6572206973206e6f7420746865206f776e657281525060200191505060405180910390fd5b80600260006101000a81548173ffffffffffffffffffffffffffffffffffffffff021916908373ffffffffffffffffffffffffffffffffffffffff16021790555050565b600d54341461195757600080fd5b60006001600a6040518060a001604052808981526020018881526020018781526020013373ffffffffffffffffffffffffffffffffffffffff168152602001858152509080600181540180825580915050906001820390600052602060002090600502016000909192909190915060008201518160000190805190602001906119e1929190613140565b5060208201518160010190805190602001906119fe929190613140565b506040820151816002019080519060200190611a1b929190613140565b5060608201518160030160006101000a81548173ffffffffffffffffffffffffffffffffffffffff021916908373ffffffffffffffffffffffffffffffffffffffff1602179055506080820151816004019080519060200190611a7f929190613140565b505050039050336003600083815260200190815260200160002060006101000a81548173ffffffffffffffffffffffffffffffffffffffff021916908373ffffffffffffffffffffffffffffffffffffffff16021790555080600460003373ffffffffffffffffffffffffffffffffffffffff1673ffffffffffffffffffffffffffffffffffffffff16815260200190815260200160002081905550600560003373ffffffffffffffffffffffffffffffffffffffff1673ffffffffffffffffffffffffffffffffffffffff168152602001908152602001600020600081548092919060010191905055507fe11e7a2b84ce91d77d6e22703b19b4218d69af20d7a8418ba6d728b323dd1b1a8187878760405180858152602001806020018060200180602001848103845287818151815260200191508051906020019080838360005b83811015611bdd578082015181840152602081019050611bc2565b50505050905090810190601f168015611c0a5780820380516001836020036101000a031916815260200191505b50848103835286818151815260200191508051906020019080838360005b83811015611c43578082015181840152602081019050611c28565b50505050905090810190601f168015611c705780820380516001836020036101000a031916815260200191505b50848103825285818151815260200191508051906020019080838360005b83811015611ca9578082015181840152602081019050611c8e565b50505050905090810190601f168015611cd65780820380516001836020036101000a031916815260200191505b5097505050505050505060405180910390a1600160008154809291906001019190505550611d06600d5484612496565b505050505050565b606080600760008473ffffffffffffffffffffffffffffffffffffffff1673ffffffffffffffffffffffffffffffffffffffff16815260200190815260200160002054604051908082528060200260200182016040528015611d7f5781602001602082028038833980820191505090505b509050600080905060008090505b600c80549050811015611e30578473ffffffffffffffffffffffffffffffffffffffff166008600083815260200190815260200160002060009054906101000a900473ffffffffffffffffffffffffffffffffffffffff1673ffffffffffffffffffffffffffffffffffffffff161415611e235780838381518110611e0e57fe5b60200260200101818152505081806001019250505b8080600101915050611d8d565b508192505050919050565b600c8181548110611e4857fe5b9060005260206000209060040201600091509050806000018054600181600116156101000203166002900480601f016020809104026020016040519081016040528092919081815260200182805460018160011615610100020316600290048015611ef45780601f10611ec957610100808354040283529160200191611ef4565b820191906000526020600020905b815481529060010190602001808311611ed757829003601f168201915b505050505090806001018054600181600116156101000203166002900480601f016020809104026020016040519081016040528092919081815260200182805460018160011615610100020316600290048015611f925780601f10611f6757610100808354040283529160200191611f92565b820191906000526020600020905b815481529060010190602001808311611f7557829003601f168201915b505050505090806002018054600181600116156101000203166002900480601f0160208091040260200160405190810160405280929190818152602001828054600181600116156101000203166002900480156120305780601f1061200557610100808354040283529160200191612030565b820191906000526020600020905b81548152906001019060200180831161201357829003601f168201915b5050505050908060030160009054906101000a900473ffffffffffffffffffffffffffffffffffffffff16905084565b600c60405180608001604052808581526020018481526020018381526020013373ffffffffffffffffffffffffffffffffffffffff168152509080600181540180825580915050906001820390600052602060002090600402016000909192909190915060008201518160000190805190602001906120e0929190613140565b5060208201518160010190805190602001906120fd929190613140565b50604082015181600201908051906020019061211a929190613140565b5060608201518160030160006101000a81548173ffffffffffffffffffffffffffffffffffffffff021916908373ffffffffffffffffffffffffffffffffffffffff16021790555050505060006001600c80549050039050336008600083815260200190815260200160002060006101000a81548173ffffffffffffffffffffffffffffffffffffffff021916908373ffffffffffffffffffffffffffffffffffffffff16021790555080600660003373ffffffffffffffffffffffffffffffffffffffff1673ffffffffffffffffffffffffffffffffffffffff16815260200190815260200160002081905550600760003373ffffffffffffffffffffffffffffffffffffffff1673ffffffffffffffffffffffffffffffffffffffff168152602001908152602001600020600081548092919060010191905055507f3c0bdd714683cfc68ce0a5a1ab63a2977cf6fe8f84be337ab2e070c04d2496008185858533604051808681526020018060200180602001806020018573ffffffffffffffffffffffffffffffffffffffff1673ffffffffffffffffffffffffffffffffffffffff168152602001848103845288818151815260200191508051906020019080838360005b838110156122fd5780820151818401526020810190506122e2565b50505050905090810190601f16801561232a5780820380516001836020036101000a031916815260200191505b50848103835287818151815260200191508051906020019080838360005b83811015612363578082015181840152602081019050612348565b50505050905090810190601f1680156123905780820380516001836020036101000a031916815260200191505b50848103825286818151815260200191508051906020019080838360005b838110156123c95780820151818401526020810190506123ae565b50505050905090810190601f1680156123f65780820380516001836020036101000a031916815260200191505b509850505050505050505060405180910390a150505050565b6124176129c3565b612489576040517f08c379a00000000000000000000000000000000000000000000000000000000081526004018080602001828103825260208152602001807f4f776e61626c653a2063616c6c6572206973206e6f7420746865206f776e657281525060200191505060405180910390fd5b80905080600e8190555050565b60006064600e548402816124a657fe5b0490508173ffffffffffffffffffffffffffffffffffffffff166108fc829081150290604051600060405180830381858888f193505050501580156124ef573d6000803e3d6000fd5b5060008184039050600260009054906101000a900473ffffffffffffffffffffffffffffffffffffffff1673ffffffffffffffffffffffffffffffffffffffff166108fc829081150290604051600060405180830381858888f1935050505015801561255f573d6000803e3d6000fd5b5050505050565b61256e6129c3565b6125e0576040517f08c379a00000000000000000000000000000000000000000000000000000000081526004018080602001828103825260208152602001807f4f776e61626c653a2063616c6c6572206973206e6f7420746865206f776e657281525060200191505060405180910390fd5b670de0b6b3a76400008102905080600d8190555050565b6125ff6129c3565b612671576040517f08c379a00000000000000000000000000000000000000000000000000000000081526004018080602001828103825260208152602001807f4f776e61626c653a2063616c6c6572206973206e6f7420746865206f776e657281525060200191505060405180910390fd5b600073ffffffffffffffffffffffffffffffffffffffff166000809054906101000a900473ffffffffffffffffffffffffffffffffffffffff1673ffffffffffffffffffffffffffffffffffffffff167f8be0079c531659141344cd1fd0a4f28419497f9722a3daafe3b4186f6b6457e060405160405180910390a360008060006101000a81548173ffffffffffffffffffffffffffffffffffffffff021916908373ffffffffffffffffffffffffffffffffffffffff160217905550565b6060806060600080600c868154811061274557fe5b906000526020600020906004020190508060000181600101826002018360030160009054906101000a900473ffffffffffffffffffffffffffffffffffffffff16838054600181600116156101000203166002900480601f01602080910402602001604051908101604052809291908181526020018280546001816001161561010002031660029004801561281b5780601f106127f05761010080835404028352916020019161281b565b820191906000526020600020905b8154815290600101906020018083116127fe57829003601f168201915b50505050509350828054600181600116156101000203166002900480601f0160208091040260200160405190810160405280929190818152602001828054600181600116156101000203166002900480156128b75780601f1061288c576101008083540402835291602001916128b7565b820191906000526020600020905b81548152906001019060200180831161289a57829003601f168201915b50505050509250818054600181600116156101000203166002900480601f0160208091040260200160405190810160405280929190818152602001828054600181600116156101000203166002900480156129535780601f1061292857610100808354040283529160200191612953565b820191906000526020600020905b81548152906001019060200180831161293657829003601f168201915b505050505091509450945094509450509193509193565b60076020528060005260406000206000915090505481565b60066020528060005260406000206000915090505481565b60008060009054906101000a900473ffffffffffffffffffffffffffffffffffffffff16905090565b60008060009054906101000a900473ffffffffffffffffffffffffffffffffffffffff1673ffffffffffffffffffffffffffffffffffffffff16612a05612ff4565b73ffffffffffffffffffffffffffffffffffffffff1614905090565b6000806000905060008090505b600a80549050811015612a505781806001019250508080600101915050612a2e565b508091505090565b6060806060600060606000600a8781548110612a7057fe5b906000526020600020906005020190508060000181600101826002018360030160009054906101000a900473ffffffffffffffffffffffffffffffffffffffff1684600401848054600181600116156101000203166002900480601f016020809104026020016040519081016040528092919081815260200182805460018160011615610100020316600290048015612b4a5780601f10612b1f57610100808354040283529160200191612b4a565b820191906000526020600020905b815481529060010190602001808311612b2d57829003601f168201915b50505050509450838054600181600116156101000203166002900480601f016020809104026020016040519081016040528092919081815260200182805460018160011615610100020316600290048015612be65780601f10612bbb57610100808354040283529160200191612be6565b820191906000526020600020905b815481529060010190602001808311612bc957829003601f168201915b50505050509350828054600181600116156101000203166002900480601f016020809104026020016040519081016040528092919081815260200182805460018160011615610100020316600290048015612c825780601f10612c5757610100808354040283529160200191612c82565b820191906000526020600020905b815481529060010190602001808311612c6557829003601f168201915b50505050509250808054600181600116156101000203166002900480601f016020809104026020016040519081016040528092919081815260200182805460018160011615610100020316600290048015612d1e5780601f10612cf357610100808354040283529160200191612d1e565b820191906000526020600020905b815481529060010190602001808311612d0157829003601f168201915b50505050509050955095509550955095505091939590929450565b600b8181548110612d4657fe5b90600052602060002001600091509050806000018054600181600116156101000203166002900480601f016020809104026020016040519081016040528092919081815260200182805460018160011615610100020316600290048015612dee5780601f10612dc357610100808354040283529160200191612dee565b820191906000526020600020905b815481529060010190602001808311612dd157829003601f168201915b5050505050905081565b60086020528060005260406000206000915054906101000a900473ffffffffffffffffffffffffffffffffffffffff1681565b60036020528060005260406000206000915054906101000a900473ffffffffffffffffffffffffffffffffffffffff1681565b6000600d54905090565b60006001600b6040518060200160405280858152509080600181540180825580915050906001820390600052602060002001600090919290919091506000820151816000019080519060200190612ec0929190613140565b5050500390507f9b461456bf22c34b04b705590ce2218c33439e5062e403bd18054efe39a4a6fc81836040518083815260200180602001828103825283818151815260200191508051906020019080838360005b83811015612f2f578082015181840152602081019050612f14565b50505050905090810190601f168015612f5c5780820380516001836020036101000a031916815260200191505b50935050505060405180910390a15050565b612f766129c3565b612fe8576040517f08c379a00000000000000000000000000000000000000000000000000000000081526004018080602001828103825260208152602001807f4f776e61626c653a2063616c6c6572206973206e6f7420746865206f776e657281525060200191505060405180910390fd5b612ff181612ffc565b50565b600033905090565b600073ffffffffffffffffffffffffffffffffffffffff168173ffffffffffffffffffffffffffffffffffffffff161415613082576040517f08c379a00000000000000000000000000000000000000000000000000000000081526004018080602001828103825260268152602001806131e66026913960400191505060405180910390fd5b8073ffffffffffffffffffffffffffffffffffffffff166000809054906101000a900473ffffffffffffffffffffffffffffffffffffffff1673ffffffffffffffffffffffffffffffffffffffff167f8be0079c531659141344cd1fd0a4f28419497f9722a3daafe3b4186f6b6457e060405160405180910390a3806000806101000a81548173ffffffffffffffffffffffffffffffffffffffff021916908373ffffffffffffffffffffffffffffffffffffffff16021790555050565b828054600181600116156101000203166002900490600052602060002090601f016020900481019282601f1061318157805160ff19168380011785556131af565b828001600101855582156131af579182015b828111156131ae578251825591602001919060010190613193565b5b5090506131bc91906131c0565b5090565b6131e291905b808211156131de5760008160009055506001016131c6565b5090565b9056fe4f776e61626c653a206e6577206f776e657220697320746865207a65726f2061646472657373a265627a7a72315820b5f7a15be5a607c0b1cb0a4498fe52a6b5a0501d8fc09120f88e4a8628451e9764736f6c634300050c0032",
  "source": "pragma solidity >= 0.5.0 < 0.7.0;\n//pragma experimental ABIEncoderV2;\nimport \"@openzeppelin/contracts/ownership/Ownable.sol\";\n\n/// @title Immutable Post Contract\n/// @author Seb @Increaseo on the concept idea of Troy @Increaseo\n/// @notice For now, this contract create a post, category have a fee split.\n\ncontract ImmutablePosts is Ownable {\n    \n    // The Post\n    struct Post {\n        string title;\n        string description;\n        string category;\n        address authorpost;\n        string ipfshash;\n    }\n\n    //Category \n    struct Category {\n        string name;\n    }\n\n    //Author\n    struct Author {\n       string name;\n       string bio;\n       string link;\n       address authoraddress;\n    }\n    uint nbarticles = 0;\n\n    // Beneficiary Wallet address this is setup in the plugin\n   \n    //Our Wallet\n    address payable walletaddress = 0x6711be7371C275F62Ee7F69e4Cb7C09ACEd852cC; // Account 3 in Ganache\n\n    //Post to Owner\n    mapping (uint => address) public postToOwner;\n    // Owner to Post\n    mapping (address => uint) ownerToPost;\n    //Post Count per Owner\n    mapping (address => uint) ownerPostCount;\n\n     // Owner to Author\n    mapping (address => uint) public ownerToAuthor;\n    //Author Count per Owner\n    mapping (address => uint) public ownerAuthorCount;\n    //Author to Owner\n    mapping (uint => address) public authorToOwner;\n\n    \n    mapping (address => uint) balances;\n\n    // New Post created\n    event newPost(uint id, string title, string description, string category);\n    // New Category created\n    event newCategory(uint id, string categoryname);\n    // New Author created\n    event newAuthor(uint idauthor, string name, string bio, string link, address authoraddress);\n    \n\n    // ARRAY METHOD for Posts and Categories\n    Post[] public posts;\n    Category[] public categories;\n    Author[] public authors;\n\n    // Fee to post a Post approx 20USD\n    uint postFee = 87200000000000000 wei;\n\n    //Percentage share\n    uint commissionPercentage = 5;\n     \n    //Create a new author\n    function createAuthor (string memory _name, string memory _bio, string memory _link) public {\n        authors.push(Author(_name,_bio,_link, msg.sender));\n        uint idauthor =  authors.length -1;\n        authorToOwner[idauthor] = msg.sender;\n        ownerToAuthor[msg.sender] = idauthor;\n        ownerAuthorCount[msg.sender]++;\n        emit newAuthor(idauthor, _name,_bio,_link, msg.sender);\n\n    }\n     //Get Author per Account\n     function getAuthorbyAccount(address _owner) external view returns(uint[] memory) {\n        uint[] memory result = new uint[](ownerAuthorCount[_owner]);\n        uint counter = 0;\n        for (uint i = 0; i < authors.length; i++) {\n          if (authorToOwner[i] == _owner) {\n            result[counter] = i;\n            counter++;\n          }\n        }\n        return result;\n      }\n     // Get Author by Id Array\n      function getAuthorbyId(uint pos) public view returns(string memory name, string memory bio, string memory link, address authoraddress){ \n        Author storage authorss = authors[pos];\n        return (authorss.name, authorss.bio, authorss.link, authorss.authoraddress);\n     } \n\n\n    //Create a new post\n    function createPostandPay(string memory _title, string memory _description, string memory _category, address payable _pluginbeneficiary, string memory _ipfshash) public payable{\n          require(msg.value == postFee);\n          uint id = posts.push(Post(_title,_description,_category, msg.sender, _ipfshash)) - 1;\n          postToOwner[id] = msg.sender;\n          ownerToPost[msg.sender] = id;\n          ownerPostCount[msg.sender]++;\n          emit newPost(id, _title, _description,_category);\n          nbarticles ++;\n          //Pay and Split the Fee\n          payAndSplitFee(postFee, _pluginbeneficiary);\n        \n          \n    }\n    //Split fee for the post between Beneficiary and Us\n    function payAndSplitFee(uint _fullfee, address payable _pluginbeneficiary) public payable {\n          \n\n          uint postFeeBeneficiary = _fullfee * commissionPercentage / 100;\n          _pluginbeneficiary.transfer(postFeeBeneficiary);\n          uint postFeeUs = _fullfee - postFeeBeneficiary;\n          walletaddress.transfer(postFeeUs);\n    }\n\n    //Create new category\n    function createCategory (string memory _categoryname) public {\n         uint id = categories.push(Category(_categoryname)) - 1;\n         emit newCategory(id, _categoryname);\n    }\n    \n\n    // Experimental so removed\n    // function getPosts() public view returns (Post[] memory){\n    //   Post[] memory id = new Post[](nbarticles);\n    //   for (uint i = 0; i < nbarticles; i++) {\n    //       Post storage post = posts[i];\n    //       id[i] = post;\n    //   }\n    //   return id;\n    //  }\n     \n    //  function getPostbyAccount(address _myAddress) public view returns (uint) {\n    //     return ownerToPost[_myAddress];\n    //   }\n\n     //Get Post per Account\n     function getPostbyAccount(address _owner) external view returns(uint[] memory) {\n        uint[] memory result = new uint[](ownerPostCount[_owner]);\n        uint counter = 0;\n        for (uint i = 0; i < posts.length; i++) {\n          if (postToOwner[i] == _owner) {\n            result[counter] = i;\n            counter++;\n          }\n        }\n        return result;\n      }\n     \n      // Get All Numbers of Posts\n      function getNbArticles() public view returns (uint _nbarticle){\n         uint counter = 0;\n        for (uint i = 0; i < posts.length; i++) {\n            counter++;\n        }\n        return counter;\n      }\n\n     // Get Post by Id Array\n      function getPostbyId(uint pos) public view returns(string memory title, string memory description, string memory category, address authorpost, string memory ipfshash){ \n        Post storage postss = posts[pos];\n        return (postss.title, postss.description, postss.category, postss.authorpost, postss.ipfshash);\n     } \n\n     // For Admin of the contract to control the fee\n     function setFee(uint _fee) external onlyOwner {\n        _fee = _fee * 10**18;\n        postFee = _fee;\n     }\n      function getFee() public view returns (uint)   {\n        return postFee;\n     }\n     \n      // For Admin of the contract to control the percentage\n     function setPercentage(uint _percent) external onlyOwner {\n        _percent = _percent;\n        commissionPercentage = _percent;\n     }\n\n\n     // Setup Beneficiary wallet adddress\n   //  function setUpBeneficiary(address payable _newbeneficiary) public {\n   //     pluginbeneficiary = _newbeneficiary;\n   //  }\n   //   function getNewBenef() public view returns (address payable)   {\n   //      return  pluginbeneficiary;\n   //   } \n    // Update our Wallet address Admin only \n     function setUpOurWallerAddress(address payable _ourwallet) public onlyOwner {\n       walletaddress = _ourwallet;\n    }\n\n    //Balance \n  //  function getBalanceInEth(address addr) public view returns(uint) {\n  //       return ConvertLib.convert(getBalance(addr),2);\n  //   }\n\n    // function getBalance(address addr) public view returns(uint) {\n    //     return balances[addr];\n    // }\n\n\n}\n",
  "sourcePath": "/Users/sebdigital/Documents/SEBDIGITAL/blockchain/immutablepost-dr/contracts/ImmutablePosts.sol",
  "compiler": {
    "name": "solc",
    "version": "0.5.12+commit.7709ece9.Emscripten.clang"
  },
  "schemaVersion": "3.0.20",
  "updatedAt": "2020-04-10T11:37:11.424Z",
  "networkType": "ethereum",
  "devdoc": {
    "author": "Seb @Increaseo on the concept idea of Troy @Increaseo",
    "methods": {
      "isOwner()": {
        "details": "Returns true if the caller is the current owner."
      },
      "owner()": {
        "details": "Returns the address of the current owner."
      },
      "renounceOwnership()": {
        "details": "Leaves the contract without owner. It will not be possible to call `onlyOwner` functions anymore. Can only be called by the current owner.     * NOTE: Renouncing ownership will leave the contract without an owner, thereby removing any functionality that is only available to the owner."
      },
      "transferOwnership(address)": {
        "details": "Transfers ownership of the contract to a new account (`newOwner`). Can only be called by the current owner."
      }
    },
    "title": "Immutable Post Contract"
  },
  "userdoc": {
    "methods": {},
    "notice": "For now, this contract create a post, category have a fee split."
  }
}